:100000000C9434000C9474260C9474260C9474266E
:100010000C9474260C9474260C9474260C947426F8
:100020000C9474260C9474260C9474260C947426E8
:100030000C9474260C9474260C9474260C947426D8
:100040000C9474260C9474260C9474260C947426C8
:100050000C9474260C9474260C9474260C947426B8
:100060000C9474260C94742611241FBECFEFD8E094
:10007000DEBFCDBF0E9407260C946126F894FFCF07
:10008000C703CF03CF03CF03CF03870387038703C0
:1000900087038703AF038703C703CF038703CF0318
:1000A000C703C7038303C303C703CF03CF03CF0330
:1000B000CF0387038703870387038703AF03870380
:1000C000C703CF038703CF03C703C7038303C30358
:1000D000C703CF03CF03CF03CF0387038703870370
:1000E0008303C303AF038703C703CF03C703CF0350
:1000F000C703C303C7038703C703CF03CF03CF03DC
:10010000CF03C703870387038303C303AF038703B7
:10011000C703CF03C7038F03C703C303C703870303
:10012000C703CF03CF03CF03CF03C70387038703DF
:100130008303C303AF038703C703C703C70387034F
:10014000C703C303C7038703C703CF03CF03CF038B
:10015000C703C703C70387038303C303AF03C703EF
:10016000C703C703CF0387038703C303C7038703FB
:10017000C703C703CF03CF03C703C703C703830363
:10018000C303C303CF03CF03E703E703EF03C703AF
:100190008703C7038703C703C703C703CF03CF037F
:1001A000C703C703C7038303C303C303CF03CF033B
:1001B000E703E703EF03C7038703C7038703C70307
:1001C000C703C703EF03EF03C703C703C703C30393
:1001D000C303C303E703CF03C703C703E703C7038F
:1001E000C70387038703C703C703C703EF03EF03EF
:1001F000C703C703C703C303C303C303E703CF0393
:10020000C703C703E703C703C70387038703C703FE
:10021000E703C703E703EF03C703C703C703C70326
:10022000C303C303DF03C703CF03C703EF03C7033E
:10023000C70383038703C703E703C703E703EF038A
:10024000C703C703C703C703C703C703DF03C70346
:10025000CF03C703EF03C703C70383038303C303AA
:10026000EF03C703CF03EF03C703C703C703870326
:10027000C703C703D703CF03E703C703EF03CF03C6
:100280008703C3038303C303CF03C703CF03EF0372
:10029000C703C703C7038703C703C703F703CF0316
:1002A000E703C703CF03CF038F03C3038303830392
:1002B000CF03CF03CF03CF03CF03C703C703870306
:1002C00087038703F703C703E703E703C7038F0326
:1002D0008F03C703C703CF03CF03CF03CF03CF03DE
:1002E000CF03CF038703870387038703F703C7037E
:1002F000EF03E703C7038703CF03C703C703CF0396
:10030000DF03CF03CF03CF03CF03C70387038703E5
:1003100087038703E703C703CF03EF03C7038F03F5
:10032000CF0387038F03CF03DF03CF03CF03CF03B5
:10033000CF03CF038703870387038703EF03C70335
:10034000CF03CF03C7038703CF0387038F038F0335
:10035000DF03CF03CF03CF03CF03CF03870387038D
:1003600087038703EF03C703CF03CF03CF038703BD
:10037000CF038F038F038F03DF03CF03CF03CF039D
:10038000CF03CF038703870387038F03FF03C703CD
:10039000CF03CF03CF038703CF038F038F038703DD
:1003A000FF03CF03CF03CF03CF038F038F03870355
:1003B0008F038F03DF038703CF03DF038F03C7039D
:1003C00087038F0387038703FF03CF03CF03CF0385
:1003D000CF038F038F0387038F038F03DF0387030D
:1003E000CF03DF038F03C70387038F0387038703CD
:1003F000FF03CF03CF03CF03CF038F038F038F03FD
:100400008F038F039F038F03DF03DF038F03CF036C
:100410008703870387038F03DF03CF03CF03CF0354
:10042000CF038F038F038F038F038F03BF038F03CC
:10043000DF03DF038F03CF038703870387038F0364
:10044000FF03CF03CF03CF03CF038F038F038F03AC
:100450008F038F038F038F039F03DF039F03CF035C
:100460008F0307038F038F03FF038F03CF03DF0384
:10047000CF038F038F038F038F038F038F03CF036C
:100480009F038F039F03CF038F0307038F038F0304
:10049000FF038F03DF03DF038F038F038F038F03BC
:1004A0008F038F039F03CF038F038F03DF038F031C
:1004B0008F0307038F030F03FF038F03DF03DF03A4
:1004C0008F038F038F038F038F038F039F03CF034C
:1004D0008F038F03DF038F038F0307038F030F0344
:1004E000FF038F03DF03DF038F038F038F038F036C
:1004F0008F038F039F03CF038F038F03DF03CF038C
:100500008F0387038F038F03FF038F03DF03DF0353
:10051000CF038F038F038F038F038F039F03CF03BB
:100520008F038F039F03CF038F0387038F038F03F3
:10053000FF03CF03CF03DF03CF038F038F038F03AB
:100540008F038F038F038F039F038F038F03CF03CB
:10055000CF03870387038703FF03CF03CF03DF03A3
:10056000CF038F038F038F038F038F038F038F03BB
:100570009F038F038F03CF03C7038703C703C703FB
:10058000FF03CF03CF03CF03CF038F038F03870373
:100590008F038F038F038F03DF03DF038F03CF03EB
:1005A000C7038F03C703C703FF03CF03CF03CF03E3
:1005B000CF038F038F03870387038703CF038F0343
:1005C000DF03DF038F03C703C703CF03CF03CF03CB
:1005D000FF03CF03CF03CF03CF038F03870387032B
:1005E0008703C703CF038F03CF03DF038F03C70343
:1005F000CF03C703CF038F03FF03CF03CF03CF0383
:10060000CF038F03870387038703C703CF038F03BA
:10061000CF03CF038F03C703CF03C703CF038F03DA
:10062000FF03CF03CF03CF03CF03CF03870387039A
:10063000C703C703EF03CF03CF03CF03CF03870362
:10064000CF03C70387038F03FF03CF03CF03CF037A
:10065000CF03CF0387038703C703C703EF03CF038A
:10066000CF03CF03CF038703CF03C70387038703DA
:10067000FF03CF03CF03CF03CF03C7038703870352
:10068000C703C703EF03C703CF03EF03C7038F03FA
:10069000C703C70387038703FF03CF03CF03CF033A
:1006A000CF03C703C7038703C703C703EF03C7030A
:1006B000CF03EF03C7038F038703C7038703C70372
:1006C000EF03CF03CF03CF03CF03C703C703C70392
:1006D000C703C703F703C703EF03EF03C703CF0342
:1006E00087038703C703C703EF03CF03CF03CF03FA
:1006F000CF03C703C703C703C703C703D703C70392
:10070000E703E703E703CF0387038703C303C703B5
:10071000EF03CF03CF03EF03C703C703C703C70329
:10072000C703C703D703C703E703CF03EF03CF0311
:1007300087038303C303C303EF03C703EF03EF037D
:10074000C703C703C703C703C703C703D703CF0341
:10075000C703C703EF03CF0387038303C303C303A5
:10076000FF03C703EF03EF03C703C703C703C703B1
:10077000C703C703E703CF03C703C703EF03CF03D1
:1007800087038303C303C303FF03C703EF03EF031D
:10079000C703C703C703C703C703C703E703CF03E1
:1007A000C703C703EF03CF0387038303C303C30355
:1007B000FF03C703EF03EF03CF03C703C703870399
:1007C000C703C703E703CF03C703C703E703CF0389
:1007D0008703C7038303C703FF03C703CF03EF03E5
:1007E000CF03C703C7038703C703C703C703CF03E9
:1007F000E703C703E703CF038703C7038703C703E1
:10080000FF03CF03CF03EF03CF03C703C703870360
:10081000C703C703C703C703EF03CF03C703CF0350
:100820008F03C7038F038F03DF03CF03CF03CF03F0
:10083000CF03CF03C70387038703C703EF03C703B0
:10084000EF03EF03C703C7038F03C703CF038F0370
:10085000DF03CF03CF03CF03CF03CF038703870388
:1008600087038703EF03C703EF03EF03C703C70340
:10087000CF038F03CF03CF03DF03CF03CF03CF0318
:10088000CF03CF038703870387038703EF03C703E0
:10089000EF03EF03C703C703CF038F03CF03CF03D8
:1008A000FF03CF03CF03CF03CF03CF038703870318
:1008B00087038F03CF03C703CF03EF03CF03870360
:1008C000CF038F038F03C703FF03CF03CF03CF03F0
:1008D000CF03CF038703870387038F03DF03C70398
:1008E000CF03CF03CF038703CF038F038F03870388
:1008F000FF03CF03CF03CF03CF03CF0387038703C8
:100900008F038F03DF03C703CF03CF03CF03870317
:10091000CF038F0387038703FF03CF03CF03CF03E7
:10092000CF03CF03870387038F038F03DF03C7033F
:10093000CF03CF03CF038703CF038F03870387033F
:10094000FF03CF03CF03CF03CF03CF038703870377
:1009500087038703DF03C703CF03CF03CF038703D7
:10096000CF0387038F038F03FF03CF03CF03CF038F
:10097000CF03CF038703870387038703DF03C703FF
:10098000CF03CF03CF038703CF0387038F038F03E7
:10099000DF03C703CF03CF03CF03CF03870387034F
:1009A00087038703E703CF03C703CF03CF0387037F
:1009B000CF03870387038703DF03C703CF03CF0377
:1009C000CF03C7038703870387038703A703C703EF
:1009D000C703C703C703CF03C703C303830383034B
:1009E000C703C703C703CF03CF03C703C7038703E7
:1009F000830383039F03C703CF03C703C703CF0347
:100A00008703C30383038303C703C703C703C70362
:100A1000C703C703C703C303830383039F03C3033E
:100A2000CF03EF03CF03C70383038703830381034C
:100A3000D703C703C703C703C703C703C703C3035A
:100A400083038103EF03C303C703E703CF03C70394
:100A5000C3038303CD03CB03D703C303C703C70378
:100A6000C703C703C303C303C303C103EB03C70324
:100A7000C303E703CF03C703C703C30385038B0384
:100A8000C303C303C303C703C703C703C303C3032A
:100A9000C103C103FF03C303C703E303E703E70382
:100AA000E703E103C503C103C303C303C303C303D4
:100AB000C703C703C303C303C103C103FB03C103CC
:100AC000E103E703E303E303E703E103E103E403F3
:100AD000E303C303E303E303E303E303E303E10308
:100AE000E103C003C903E103C103C303C703C70391
:100AF000C303C303C003E503E103E103E103E1032F
:100B0000E303E303E303E103E103C003EB03C303F4
:100B1000C303E303E103E303E303E303E003E503C8
:100B2000E103E103E103E103E103E303E303E103A1
:100B3000E103C003FB03E303E103E103F303F10378
:100B4000E303E303E003E103F103E103E103E10372
:100B5000E103F103E303E303E103C003E303E3037E
:100B6000E103F103F103E303F103E103E003A10374
:100B7000FB03E103E103E103F103F103F103E30309
:100B8000A1038103F103F303E103F103E103E103B3
:100B9000E303F103E1030003FB03F303E103E103D8
:100BA000F103F103F103E303A1038103F303E10381
:100BB000E103F103E103F103E103F1032303010383
:100BC000FB03F303E103E103F103F103F103F30397
:100BD00081038103FF03F103F303F103E103F10355
:100BE000F103A1032303C103FF03F303E103E103C3
:100BF000F103F103F103B3038303C103FB03F30325
:100C0000F303F103E103F103F103E10321038303A0
:100C1000FF03F303E303E103F103F103F103B30380
:100C20008303C103FF03F303F103F303E103F103C0
:100C3000F303A30381038303FF03F303E303E1034C
:100C4000F103F103F103B3038303C103FF03F303D0
:100C5000F103F303E103F103F3032303C10383036C
:100C6000FF03F303E303E103F103F103F303A3033E
:100C70008303C303F703F303F103F303E303F30372
:100C8000F1033303C1038103FF03F303E303E10330
:100C9000F103F103F303A3038303C303F703F30394
:100CA000F103F303E303F303F1033303C10381030C
:100CB000FF03F303E303E303F103F103F303A303EC
:100CC00083038303F703F703F103E103E303F30370
:100CD000B3031303C103C103FF03F303E303E303FC
:100CE000F103F103F303A30383038303F703F70380
:100CF000F103E103E303F303B3031303C103C103EC
:100D0000FF03F303E303E303F303F303B303A303D7
:100D100083038303F703F703E303E103E103F10331
:100D2000F3031303C103C103FF03F303E303E3036B
:100D3000F303F303B303A30383038303F703F7036B
:100D4000E303E103E103F103F3031303C103C1036D
:100D5000FF03F303E303E303F303F303B303A30387
:100D600083038303FF03E703E303E103E103F103E9
:100D7000F3031303C103C103FF03F303E303E3031B
:100D8000E303F303B303A30383038303FF03E70333
:100D9000E303E103F103F103F3031303C303C1030B
:100DA000FF03F303E303E303E303F303B303A30347
:100DB00083038303FF03E703E303E303F103F10387
:100DC000F3031303C303C103FF03F703E303E303C5
:100DD000E303F303B303A30383038303FF03E303E7
:100DE000E303E303F103F103F3031303C303C303B7
:100DF000FF03F703E303E303E303F303B303A303F3
:100E000083038303FF03E303E303E303F103F1033A
:100E1000F3031303C303C303FF03F703E303E30372
:100E2000E303F303B303A303C3038303FF03E30356
:100E3000E303E303F103F103F30303038303C303B6
:100E4000FF03F703E303E303E303F303B303A303A2
:100E5000C3038303FF03E303E303E303F103F103AA
:100E6000F30303038303C303FF03F703E303E30372
:100E7000E303F303B303A303C3038303FF03E30306
:100E8000E303E303F103F103F30303038303C30366
:100E9000FF03F303E303E303E303F303B303A30356
:100EA000C3038303FF03E703E303E303F103E10366
:100EB000F30393038303C303FF03F303E303E30396
:100EC000E303F303B303A303C3038303FF03E703B2
:100ED000E303E303F103E103F30393038303C30396
:100EE000FF03F303E303E303E303F303B303A30306
:100EF000C303C303FF03E703E303E103F103F103C8
:100F0000F303930383038303FF03F303E303E30385
:100F1000E303F303B303A303C303C303FF03E70321
:100F2000E303E103F103F103F30393038303830377
:100F3000FF03F303E303E303E303F303B3038303D5
:100F4000C303C303F703E703E303E103F103E1038F
:100F5000B303B30383038103FF03F303E303E30357
:100F6000E303F103B3038303C303C303F703E703FB
:100F7000E303E103F103F303B303B3038303810347
:100F8000FF03F303E303E303E103F103B303830389
:100F9000C303C303F703E303E303E103F303E3033F
:100FA000B103B30383038103F703F303E303E30311
:100FB000E103F103B3038303C303C303FF03E303A9
:100FC000E303E103F303E303B103B3038303810307
:100FD000F703F303E303E303E103F103B303830341
:100FE000C303C303FF03E303E103E103F303F303D9
:100FF0009103B30383038103F703F303E303E103E3
:10100000E103F103B3038303C303C303FF03E30358
:10101000E103E303F303E3039103930381038103F8
:10102000F703F303E303E103E103F103B3038303F2
:10103000C303C103FF03E303E103E303F303F30388
:101040009103D30381038303F703E303E303E10382
:10105000E103F10391038303C303C103F703F30324
:10106000E103E303F303F103B303D3038103830336
:10107000F703E303E103E103E103F1039103C30396
:10108000C303C103F303F303E303E303F103E10346
:10109000B3039303C1038303F703E303E103E10312
:1010A000E103F1039103C303C303C103F303F1039A
:1010B000E303E103F103F103B30393038103830328
:1010C000F703E303E103E103E103F1039103C30346
:1010D000C303C103F303F103E303E103F103C1031A
:1010E000D3039103C1038303F703E303E103E103A4
:1010F000E103F1039103C303C303C103F303F1034A
:10110000E303E103F1038103D3039103C1038303E9
:10111000F303E303E103E103E103F1039103C303F9
:10112000C303C103F703F103E103E103F103C103C7
:10113000D103D103C1038103F303E303E103E1031B
:10114000E103F1039103C303C303C103F703F103F5
:10115000E103E103F1038103D1039103C103C1035F
:10116000F303E103E103E103E103D1039103C103CD
:10117000C303C103F303F303E103E103F103E10359
:10118000D103D303C103C103F303E103E103E1038B
:10119000E103D1039103C103C303C103F303F303C9
:1011A000E103E103F103E103D103D303C103C1036D
:1011B000F303E103E103E103E103D103D103C1033D
:1011C000C303C103F303F303E103E103F00380036B
:1011D0008103C303C103C103F303E103E103E1039B
:1011E000E103D103D103C103C303C103F303F30339
:1011F000E103E103F00380038003C303C103C103E0
:10120000F303E103E103E103E103D103D103C103EC
:10121000C303C103F103F303E103E103F003C003DC
:101220008003C303C103C103F303E103E103E1034B
:10123000E103D103D103C103C303C103F103F303EA
:10124000E103E103F003C0038003C303C103C1034F
:10125000F303E103E103E103E103C103C103C103BC
:10126000C303C103F103E303E103E103F003D0038C
:101270009003C303C103C103F303E103E103E103EB
:10128000E103C103C103C103C303C103F103E303CA
:10129000E103E103F003D0039003C303C103C103DF
:1012A000F303E103E103E103E103C103C103C1036C
:1012B000C303C103F103E303E103E103F003D0033C
:1012C0009003C303C103C103F303E103E103E1039B
:1012D000E103C103C103C103C303C103F103E3037A
:1012E000E103E103F003D0039003C303C103C1038F
:1012F000F303E103E103E103E103C103C103C1031C
:10130000C303C103F103E303E103E103F003D003EB
:101310009003C303C103C103F303E103E103E1034A
:10132000E103C103C103C103C303C103F103E30329
:10133000E103E103F003D0039003C303C103C1033E
:10134000F303E103E103E103E103C103C103C103CB
:10135000C303C103F103E303E103E103F003D0039B
:101360009003C303C103C103F303E103E103E103FA
:10137000E103C103C103C103C303C103F103E303D9
:10138000E103E103F003D0039003C303C103C103EE
:10139000F303E103E103E103E103C103C103C1037B
:1013A000C303C103F103E303E103E103F003D0034B
:1013B0009003C303C103C103F303E103E103E103AA
:1013C000E103C103C103C103C303C103F303E30387
:1013D000E103E103F003D0039003C303C103C1039E
:1013E000F303E103E103E103E103C103C103C1032B
:1013F000C303C103F303E303E103E103F003D003F9
:101400009003C303C103C103F303E103E103E10359
:10141000E103C103C103C103C303C103F303E30336
:10142000E103E103F003D0039003C303C103C1034D
:10143000F303E103E103E103E103C103C103C103DA
:10144000C303C103F303E303E103E103F003D003A8
:101450009003C303C103C103F303E103E103E10309
:10146000E103C103C103C103C303C103F303E303E6
:10147000E103E103F003D0039003C303C103C103FD
:10148000F303E103E103E103E103D103D103C1036A
:10149000C303C103F303E303C103E103F003C00388
:1014A0008003C303C103C103F303E103E103E103C9
:1014B000E103C103D103C103C303C103F303E30386
:1014C000C103E103E003D0038003C303C103C103ED
:1014D000F303E103E103E103E103D103D103C1031A
:1014E000C303C103F303E303C103C103E103C00367
:1014F0008103C303C103C103F303E103E103E10378
:10150000E103D103D103C103C303C103F303E30325
:10151000C103C103E10381038103C303C103C10309
:10152000F303E303E103E103E103C103D103C103D7
:10153000C303C103F303E103C103C103E103B10327
:101540008103C303C103C103F303E303E103E10325
:10155000E103C103D103C103C303C103E703E103F3
:10156000C103C103E103B1038103D303C103C10379
:10157000F303E303C103C103E103C1039103C10307
:10158000C303C103E703E103E303E103E103B103A1
:10159000C1039303C103C303E303E303C103C10313
:1015A000E103C1039103C103C303C103F703E103D3
:1015B000E303E103E103B103C1039303C103C303E5
:1015C000E303E303C303C103E103E1039103C103A5
:1015D000C303C103F703E303E103E303E10391035F
:1015E000C1039303C1038303E303E303C303C10301
:1015F000E103E10391038103C303C103F703C303C1
:10160000E103E303E1039103C303D303C1038303B2
:10161000E303E303C303C103E103E1039103830392
:10162000C303C103E703E303E103E303E303F303BA
:10163000A303910381038303E303E303C303C10310
:10164000E103E10391038303C303C103E703E3035E
:10165000E103E303E303F303A303910381038303A0
:10166000E303E303C303C103E103E103B103830322
:10167000C303C303E703E303E103E303E303F30368
:101680008303B10381038103E303E303C303C103C2
:10169000E103E103B10393038303C303C703C3035C
:1016A000E103C303E303F303E303A103C1038103E2
:1016B000E303E303C303C103E103E103F303B30360
:1016C0008303C303C703C303E103C303C303F303D8
:1016D000A103010381038103C303C303C303C10344
:1016E000E103E103E303B30383038303E703E303BA
:1016F000C103C303C303E303F10321033303C103A2
:10170000C703C303C303C103E103E103E303E3032B
:1017100033030303C303C303C103C303C303E303CB
:10172000F103310321038103C703C303C303C103CF
:10173000C103E103E303F303610301038303C30371
:10174000C103C303E303E303F103E103330323030F
:101750008703C303C303C303C103E103E303E1033B
:10176000E1036103C7038703C3038103E303E303C7
:10177000F103F303F30371038703C303C303C30339
:10178000C303E103E303E103F103F10387038703E9
:1017900083038103E103E303F103F303E103610343
:1017A00087038703C303C303C303E103E303F10315
:1017B000F103F103F7038303C3038303C103C303EB
:1017C000F903E303E103E003E7038703C303C30370
:1017D000C303E103E303F103F103F1039F03C30335
:1017E000C303C303C103C303F903E303F103F0031A
:1017F000FF03C303C303C303C103E103E103F10315
:10180000F103F103F7038703C303C103C303C30356
:10181000E303E903F003F003FF03C303C303C303BC
:10182000C103E103E103F103F103F003FF03E70365
:10183000E103E103E303C303F303E903F803F9035B
:10184000FF03E303E103E103E103E103E103E90350
:10185000F803F803FF03FF03E303E103C103E1031C
:10186000F103F103F903F003FF03F303E103E103E1
:10187000E103E103F103E903F803F803FF03ED03D8
:10188000F103E103E103F003E103F003E803F803EC
:10189000FF03FB03F103F003E003F003F003F8039D
:1018A000F803F803FF03F103F003E103F003E0039F
:1018B000F103F503FC03FC03FF03F903F003F0035A
:1018C000F003F003F003F003FC03F803FF03FA0353
:1018D000F803F003E003F803F803FC03F803FC0348
:1018E000FF03F803F803F003F803F803F803FC031D
:1018F000FC03FC03FC03FC03F003F803F003F80310
:10190000FC03F803FC03FC03FE03F803F803F803ED
:10191000F803F803FC03FC03FC03FC03FC03FC03D7
:10192000F803F803F803FC03F803FC03FC03FC03CF
:10193000FF03FC03FC03FC03FC03FC03FC03FC03AC
:10194000FC03FC03FE03FC03F803F803FC03FC03A5
:10195000FC03FC03FC03FC03FF03FC03FC03FC038C
:10196000FC03FC03FC03FC03F803F803FE03FE0383
:10197000FC03FC03FE03FE03FC03FC03FC03F8036F
:10198000FF03FE03FE03FE03FE03FE03F803E00372
:1019900040030003FE03FE03FC03FC03FE03FC0301
:1019A000F003D00384024002FF03FE03FE03FE03A4
:1019B000FE037C020002800380038003FE03FE031B
:1019C000FC03FC03FC031A0340034403C403C003E9
:1019D0005F03CE03CE038603000308038C03C80312
:1019E000F803F803AF03DF0384030C0302020002D1
:1019F0000803DC03F803F803EF03E7030703060318
:101A0000860380038803DC03FC03F803E703FF037A
:101A10008E03870300038203C403EC03F803FC0373
:101A2000FF03FF03FF03FF03EB03EB03E303C30326
:101A3000C203C003FF03FF03FF03EB03FF03E7033E
:101A4000C303E303C103E003FF03FF03FF03FF033B
:101A5000FF03FF03FB03F303E303E303FF03FF03BE
:101A6000FF03FF03FF03FB03F503F903F303F30392
:101A7000FF03FF03FF03FF03FF03FF03FF03FF0356
:101A8000FF03FF03FF03FF03FF03FF03FF03FF0346
:101A9000FF03FF03FF03FF03FF03FF03FF03FF0336
:101AA000FF03FF03FF03FF03FF03FF03FF03FF0326
:101AB000FF03FF03FF03FF03FF03FF03FF03FF0316
:101AC000DF03FF03FF03FF03FF03FF03FF03FF0326
:101AD000FF03FF039F03FF03FF03FF03FF03FF0356
:101AE000FF03FF03FF03FF03DF03FF03FF03FF0306
:101AF000FF03FF03FF03FF03FF03FF038F03DF0366
:101B0000FF03FF03FF03FF03FF03FF03FF03FF03C5
:101B1000CF03CF03FF03FF03FF03FF03FF03FF0315
:101B2000FF03FF03DF03DF03DF03FF03FF03FF0305
:101B3000FF03FF03FF03FF03DF03CF03DF03FF0305
:101B4000FF03FF03FF03FF03FF03FF03EF03CF03C5
:101B5000EF03FF03FF03FF03FF03FF03FF03FF0385
:101B6000FF03CF03CF03DF03FF03FF03FF03FF03E5
:101B7000FF03FF03FF03DF03CF03EF03FF03FF03B5
:101B8000FF03FF03FF03FF03FF03FF03CF03CF03A5
:101B9000FF03FF03FF03FF03FF03FF03FF03CF0365
:101BA000CF03DF03FF03FF03FF03FF03FF03FF0375
:101BB000FF03FF03CF03CF03CF03FF03FF03FF03A5
:101BC000FF03FF03FF03FF03EF03CF03FF03FF0345
:101BD000FF03FF03FF03FF03FF03FF03FF03CF0325
:101BE000CF03FF03FF03FF03FF03FF03FF03FF0315
:101BF000CF03CF03CF03CF03FF03FF03FF03FF0395
:101C0000FF03FF03FF03EF03CF03CF03FF03FF0334
:101C1000FF03FF03FF03FF03FF03CF03C703EF032C
:101C2000FF03FF03FF03FF03FF03FF03FF03EF03B4
:101C3000CF03CF03EF03FF03FF03FF03FF03FF0304
:101C4000FF03DF03E703C703FF03FF03FF03FF03F4
:101C5000FF03FF03FF03FF03CF03C703EF03FF03EC
:101C6000FF03FF03FF03FF03FF03FF03E703CF03AC
:101C7000C703FF03FF03FF03FF03FF03FF03FF038C
:101C8000EF03C703CF03FF03FF03FF03FF03FF03BC
:101C9000FF03FF03CF03CF03E703EF03FF03FF03BC
:101CA000FF03FF03FF03FF03FF03C703C703EF03A4
:101CB000FF03FF03FF03FF03FF03FF03EF03EF0334
:101CC000CF03C703FF03FF03FF03FF03FF03FF036C
:101CD000FF03EF03C703EF03FF03FF03FF03FF034C
:101CE000FF03FF03FF03C703CF03C703FF03FF0384
:101CF000FF03FF03FF03FF03FF03EF03C703C70354
:101D0000FF03FF03FF03FF03FF03FF03FF03D703EB
:101D1000EF03EF03EF03FF03FF03FF03FF03FF03E3
:101D2000FF03EF03C703C703EF03FF03FF03FF0333
:101D3000FF03FF03FF03FF03EF03EF03FF03FF03B3
:101D4000FF03FF03FF03FF03FF03EF03C703C70303
:101D5000EF03FF03FF03FF03FF03FF03FF03FF0383
:101D6000EF03EF03E703FF03FF03FF03FF03FF039B
:101D7000FF03EF03C703C703EF03FF03FF03FF03E3
:101D8000FF03FF03FF03FF03EF03EF03E703FF037B
:101D9000FF03FF03FF03FF03FF03EF03C703C703B3
:101DA000EF03FF03FF03FF03FF03FF03FF03FF0333
:101DB000EF03EF03FF03FF03FF03FF03FF03FF0333
:101DC000FF03EF03C703C703EF03FF03FF03FF0393
:101DD000FF03FF03FF03C703EF03EF03FF03FF034B
:101DE000FF03FF03FF03FF03FF03CF03C703C70383
:101DF000FF03FF03FF03FF03FF03FF03FF03E703EB
:101E0000CF03EF03EF03FF03FF03FF03FF03FF0312
:101E1000FF03C703C703EF03FF03FF03FF03FF0332
:101E2000FF03FF03EF03EF03CF03C703FF03FF032A
:101E3000FF03FF03FF03FF03EF03C703C703EF0322
:101E4000FF03FF03FF03FF03FF03FF03C703CF03EA
:101E5000CF03FF03FF03FF03FF03FF03FF03FF03A2
:101E6000EF03C703C703FF03FF03FF03FF03FF03E2
:101E7000FF03FF03C703CF03EF03EF03FF03FF03DA
:101E8000FF03FF03FF03EF03C703C703EF03FF03D2
:101E9000FF03FF03FF03FF03FF03DF03CF03CF03B2
:101EA000CF03FF03FF03FF03FF03FF03FF03EF0362
:101EB000C703C703EF03FF03FF03FF03FF03FF0392
:101EC000FF03CF03CF03CF03DF03FF03FF03FF03B2
:101ED000FF03FF03FF03CF03C703CF03FF03FF038A
:101EE000FF03FF03FF03FF03EF03E703CF03E70352
:101EF000EF03FF03FF03FF03FF03FF03FF03CF0312
:101F0000C703CF03FF03FF03FF03FF03FF03FF0329
:101F1000EF03C703CF03E703FF03FF03FF03FF0341
:101F2000FF03FF03EF03CF03C703CF03FF03FF0349
:101F3000FF03FF03FF03FF03DF03C703CF03FF0319
:101F4000FF03FF03FF03FF03FF03FF03EF03CF03C1
:101F5000C703CF03FF03FF03FF03FF03FF03FF03D9
:101F6000DF03C703CF03FF03FF03FF03FF03FF03E9
:101F7000FF03FF03EF03C703C703CF03FF03FF0301
:101F8000FF03FF03FF03FF03DF03CF03CF03EF03D1
:101F9000FF03FF03FF03FF03FF03FF03EF03C70379
:101FA000C703CF03FF03FF03FF03FF03FF03FF0389
:101FB000DF03CF03CF03EF03FF03FF03FF03FF03A1
:101FC000FF03FF03EF03C703C703CF03FF03FF03B1
:101FD000FF03FF03FF03FF03DF03CF03CF03E70389
:101FE000FF03FF03FF03FF03FF03FF03EF03C70329
:101FF000C703CF03FF03FF03FF03FF03FF03FF0339
:10200000DF03CF03C703E703FF03FF03FF03FF0360
:10201000FF03FF03FF03C703C703C703FF03FF0358
:10202000FF03FF03FF03FF03EF03CF03C703EF0328
:10203000EF03FF03FF03FF03FF03FF03FF03C703D8
:10204000C703C703FF03FF03FF03FF03FF03FF03F0
:10205000EF03CF03C703EF03EF03FF03FF03FF0308
:10206000FF03FF03FF03E703C703C703EF03FF03F8
:10207000FF03FF03FF03FF03FF03CF03C703E703D0
:10208000FF03FF03FF03FF03FF03FF03FF03E70358
:10209000C703C703EF03FF03FF03FF03FF03FF03B0
:1020A000FF03CF03C703C703F703FF03FF03FF03C8
:1020B000FF03FF03FF03E703C703C703EF03FF03A8
:1020C000FF03FF03FF03FF03FF03CF03E703C70380
:1020D000C703FF03FF03FF03FF03FF03FF03EF0338
:1020E000C703C703E703FF03FF03FF03FF03FF0368
:1020F000FF03C703E703E703CF03FF03FF03FF0368
:10210000FF03FF03FF03EF03C703C703E703FF0357
:10211000FF03FF03FF03FF03FF03F703E703E703E7
:10212000CF03FF03FF03FF03FF03FF03FF03EF03DF
:10213000E703C703E703FF03FF03FF03FF03FF03F7
:10214000FF03F703C703E303C703EF03FF03FF0323
:10215000FF03FF03FF03FF03E703C703E703FF03D7
:10216000FF03FF03FF03FF03FF03E703C703E303CB
:10217000C703EF03FF03FF03FF03FF03FF03FF0397
:10218000E703C703E703FF03FF03FF03FF03FF03A7
:10219000FF03E703C703E303C703EF03FF03FF03E3
:1021A000FF03FF03FF03FF03C703C703E703FF03A7
:1021B000FF03FF03FF03FF03FF03EF03E703E30353
:1021C000C703EF03FF03FF03FF03FF03FF03FF0347
:1021D000C703C703E703FF03FF03FF03FF03FF0377
:1021E000FF03EF03E703E303C703EF03FF03FF036B
:1021F000FF03FF03FF03FF03C703C703C703FF0377
:10220000FF03FF03FF03FF03FF03EF03E703C7031E
:10221000E703E703FF03FF03FF03FF03FF03FF03DE
:10222000C703C703C703FF03FF03FF03FF03FF0346
:10223000FF03EF03E703C703E703E703FF03FF031E
:10224000FF03FF03FF03FF03C703C703C703FF0326
:10225000FF03FF03FF03FF03FF03EF03E703C703CE
:10226000E703EF03FF03FF03D803FF03FF03FF03AD
:10227000C703C703C703FF03FF03FF03E703FF030E
:10228000FF03EF03E703C703E703EF03FF03FF03C6
:102290000000F003F003FE03C603C703C703EF0308
:1022A000FF03FF0300008000F803FE03EF03C603F3
:1022B000EF03FF03FF03FF038003E003F803F803CA
:1022C000C003C403C403EF03FF03FF034000C003C4
:1022D000F003FD03ED03C803CF03FE03FF03FF0379
:1022E0003F003F0013001300380038003800100092
:1022F000000000007F003F0017003200300038006F
:1023000038000800000000003F003F0013001300E9
:102310003800380038001000000000007F003F0047
:1023200017003200300038003800080000000000BC
:102330003F003F0013001300380038003800100041
:10234000000000007F003F0017003200300038001E
:1023500038000800000000003F003F001300130099
:102360003800380038001000000000007F003F00F7
:10237000170032003000380038000800000000006C
:102380003F003F00130013003800380038001000F1
:10239000000000007F003F001700320030003800CE
:1023A00038000800000000003F003F001300130049
:1023B0003800380038001000000000007F003F00A7
:1023C000170032003000380038000800000000001C
:1023D0003F003F00130013003800380038001000A1
:1023E000000000007F003F0017003200300038007E
:1023F00038000800000000003F003F0013001300F9
:102400003800380038001000000000007F003F0056
:1024100017003200300038003800080000000000CB
:102420003F003F0013001300380038003800100050
:10243000000000007F003F0017003200300038002D
:102440003800080000000000FF007F003F007E0011
:102450007C00700030000000000000007F037F005F
:102460007E007C00F800780078000000000000008A
:10247000FF03FF03FF00FC03D80380038003000079
:1024800000000000FF01FF01FF00FD01BC03C803C5
:102490008001000100000000FF03FF03FF03FF03B2
:1024A0003C0300030003000200000000FF03FF03E1
:1024B000FF03FF01DB03180300020000000000001F
:1024C000F003F003FF03FF03FF03EF0363000000CB
:1024D00000000000E003EF03FF03FF03FF03D70347
:1024E0000000200000000000C003C003E003FF0361
:1024F000FF03FF03DF03400000000000C003E00310
:10250000C303FF03FF03FF03EF0207000000000007
:102510000000800180038003FF03FF03FF03FF032C
:10252000C7010000000000008001E0038F03FF03EB
:10253000FF03FF038B020000000000010003000303
:102540008E03FF03FF03FF039F0300000000000052
:1025500080018003F003FE03FF03FF03EE0382010B
:1025600000000002000200030003FC03FE03FF035F
:10257000BE03040000000000000300029C03FE03F1
:10258000FF03FE035F030A030000000200020003D2
:102590000003FC03FE03FF03BF030401000200006D
:1025A000000300028C03FE03FF03FE037E030A0206
:1025B00000020003000380038003FE03FF03FF0308
:1025C000FF038F030003000280010003C003ED033B
:1025D000FF03FF03FF039601000300038003800352
:1025E000C003FF03FF03FF03FF03CF0300028003C9
:1025F00000038003A003E003FF03FF03FF0397032F
:10260000C003C003C003C003E003F803FF03FF03DC
:10261000FF03FF03C003C003E003E003C003F301B3
:10262000FF01FF03FF03FF03E003E003E003E00318
:10263000E003FC03FF03FF03FF03FF03F003F003CA
:10264000F003F003F003F002FF00FF01FF03FF03BC
:10265000FC01FC00F000F800FC03FC017F017F019D
:10266000FF03FF01FC00F800F800E003F802F803A4
:10267000BC00FF00FF03FF02FF007C00780278022D
:10268000FE03FE00FF00BF00FF03FF03FE00FA0091
:102690007C0074037C01FC013E007F00FF01FF0011
:1026A0007F003F001E009C00FF007F003F000F00E6
:1026B0007F00FF033F003E00BD00BE0118013F0048
:1026C0003F007F005F00FF033F003F001F00DE0070
:1026D0005F003F003F002F003F007F033F001F00CF
:1026E0001F005F00FC007F001F001F004F00FF0065
:1026F0003F001F000F006F006F001F001F0017003A
:1027000017002F007F001F001F000F001E003E005B
:102710001F000F002F001F003F001F000F006F0061
:102720006F001F001F001F00170027003F001F0041
:102730001F0007002E003E000F00030007001F00CF
:102740003F001F000F00270027001F000F000F0091
:102750000B0017003F001F000F000F007F002E002E
:102760001F000F00130003003F001F000F00270091
:1027700027001F000F000F000B0003003F001F0089
:102780000F000F003F0027001F000F0007001B0075
:102790003F001F000F000700370037000F000F0039
:1027A0000F000B003F001F000F000F0027000F005D
:1027B0001F000F00030003003F001F000F00070071
:1027C000370037001F000F000F000B003F003F00D5
:1027D0001F000F00270027000F000F0007000B004D
:1027E0007F003F001F000F00370037001F000F0061
:1027F0000F000B003F001F000F000F0027002700F5
:102800000F001F000F000F007F003F001F000F0090
:10281000270037001F000F000F000F007F003F0050
:102820001F000F003700270007001F000F000B00DC
:102830007F003F001F000F002700370017000F0028
:102840000F000F007F007F003F001F001F002700C8
:102850002F001F001F000F007F003F001F000F0010
:102860002F00370017001F000F000F007F007F00B0
:102870003F001F00370027002F000F001F000F0030
:102880007F003F001F000F003F00370037001F0090
:102890000F000F007F007F003F001F000F00270088
:1028A0000F000F001F001F007F003F001F000F00E0
:1028B0003F00370037001F000F000F007F007F0030
:1028C0003F001F000F00370017000F001F001F0000
:1028D0007F003F001F001F001F00370037001F0050
:1028E0000F000F007F007F003F000F002F003F0010
:1028F0001F000F001F001F007F003F001F001F0070
:102900001F003F0037001F000F000F007F007F00F7
:102910003F000F000F0037001F000F001F000F00C7
:102920007F003F003F001F001F003F0037001F00D7
:102930000F000F007F007F001F000F000F001F001F
:102940001F000F000F000F007F003F003F001F001F
:102950001F001F003F001F000F000F006F007F00CF
:102960001F001F000F003F0017000F000F000F0097
:102970006F007F003F001F001F001F003F001F006F
:102980000F000F00FF007F003F001F000F003F00FF
:1029900017000F000F000F006F007F003F001F00A7
:1029A0001F001F001F001F000F000F00FF007F000F
:1029B0007E003F000F003F0037000F000F000F00A8
:1029C0004F00FF007E003F001F001F001F001F0080
:1029D0000F000F00EE00FF007F003F001F001F00F0
:1029E0003F000F000F000F004F00FF00FE007F00B0
:1029F0001F001F001F001F000F000F00EE005F00F0
:102A00007C003F003F001F003F000F000F000F0041
:102A1000CE005F00FE007F003F001F001F001F0070
:102A20000F000F005F00FC00FC00FF001F001F00F4
:102A30003F000F000E000E004E005F00FC00FF0084
:102A40003F001F003F001F000E000F008C00FE0023
:102A5000FE007F001F001F001F000F001F000E0060
:102A60000C001F00FC00FF003F001F003F001F0084
:102A70000F000F000E00DE00FC007E001F001F0094
:102A80001F000F001E000E000C001E00FC00FE00C8
:102A90003F001F003F001F000F000F0000001F003D
:102AA000FD007D001F001F001F000F001E000F0013
:102AB00000001E007C007E001F001F003F001F0062
:102AC0001F000F000C004C00FB00FC003F001F002B
:102AD0001F000F000E001F0000001E007C007E0083
:102AE0001F001F003F001F001F001F0008004C00B8
:102AF000FA00FC003F001F001F000C000F00070041
:102B000000001C007C007C001E001F001F001D0038
:102B10001F00170000004A00FA003E003F003F007F
:102B20003D000E000F000F0000001C007C003C0068
:102B30001E001F001D001F001F00170000000800DE
:102B40007A007A001E003E003E000C000F000F00CD
:102B50000000080078003C001E001E001E001E0041
:102B60001F001F00000014001C0078001C003F0024
:102B700018000F0006002F030000000038003C0082
:102B80001C001E001C001E000F00BF0300001800E8
:102B90007C0018003E002C001E000F001E005F038A
:102BA00000000000380038001C001C001C000E0053
:102BB0009F03BF03000008007C001C003E003E0095
:102BC0000E001F007F005F0000000000380038008A
:102BD0001C001C001C000F00FF031F000000080069
:102BE00078001C003C001C000C001E009F01BF016F
:102BF00000000000380018001C001C001C009F038F
:102C00009F00040000000000100038003800180089
:102C10000C006F007F010900000000003000180068
:102C200018001C001C00BF011F0000000000000075
:102C3000180038003C0018000F005F02CF000400AD
:102C40000000000030003800180018001F00DF00EE
:102C500001000000000000001800100018001C0017
:102C60008C013F010E000000000000003000180041
:102C7000180018009F001F00000000000000000066
:102C80001800300018000C007F01FF000100000058
:102C9000000000003000180018001C00DF000B00CE
:102CA00000000000000000001800300010000800C4
:102CB0003F01150000000000000000003000180077
:102CC00018001C00FF0003000000000000000000CE
:102CD0001800300010000A001F011800000000005A
:102CE000000000003000180018001C001F00000049
:102CF00000000000000000001000300010001A006A
:102D0000FE0002000000000000000000100018009B
:102D100018001E001F00000000000000000000005E
:102D2000300030001000F800E20000000000000059
:102D3000000000001000100018001E000600000037
:102D40000000000000000000200018001000FC003F
:102D5000180000000000000000000000100010003B
:102D600018001E000200000000000000000000002B
:102D7000200018001000FC001C00000000000000F3
:102D8000000000001000100018001E0000000000ED
:102D900000000000000000002000180010007C006F
:102DA00004000000000000000000000010001000FF
:102DB00018001C00000000000000000000000000DF
:102DC0002000100010006E00000000000000000055
:102DD000000000001000100018001C00000000009F
:102DE00000000000000000002000100014006E0031
:102DF00000000000000000000000000010001000B3
:102E000018001C000000000000000000000000008E
:102E1000200010001400040000000000000000006A
:102E2000000000001000100018000C00000000005E
:102E3000000000000000000020001000140010003E
:102E40000000000000000000000000001000100062
:102E50001800040000000000000000000000000056
:102E600020001000340018000000000000000000E6
:102E7000000000001000100018000000000000001A
:102E800000000000000000000000100074001C00A2
:102E90000000000000000000000000001000100012
:102EA000180000000000000000000000000000000A
:102EB0000000100074001C00000000000000000072
:102EC00000000000100010001800000000000000CA
:102ED0000000000000000000000010003C000C009A
:102EE00000000000000000000000000010001000C2
:102EF00018000000000000000000000000000000BA
:102F0000000010003C000C00000000000000000069
:102F10000000000010001000180000000000000079
:102F20000000000000000000000010003C000C0049
:102F30000000000000000000000000001000100071
:102F40001800000000000000000000000000000069
:102F5000000010003C000400000000000000000021
:102F60000000000010001000180000000000000029
:102F70000000000000000000000010003C00040001
:102F80000000000000000000000000001000100021
:102F90001800000000000000000000000000000019
:102FA000000010003C0004000000000000000000D1
:102FB00000000000100010001800000000000000D9
:102FC0000000000000000000000010003C000400B1
:102FD00000000000000000000000000010001000D1
:102FE00018000000000000000000000000000000C9
:102FF000000010003C000000000000000000000085
:103000000000000010001000180000000000000088
:103010000000000000000000000010003C00000064
:103020000000000000000000000000001000100080
:103030001800000000000000000000000000000078
:10304000200010003C000000000000000000000014
:103050000000000010001000180000000000000038
:103060000000000000000000200010003C000000F4
:103070000000000000000000000000001000100030
:103080001800000000000000000000000000000028
:10309000200010003C0000000000000000000000C4
:1030A00000000000100010001800000000000000E8
:1030B0000000000000000000200010003C000000A4
:1030C00000000000000000000000000010001000E0
:1030D00018000000000000000000000000000000D8
:1030E000200010003C000000000000000000000074
:1030F0000000000010001000180000000000000098
:103100000000000000000000200010003C00000053
:10311000000000000000000000000000100010008F
:103120001800000000000000000000000000000087
:10313000200010003C000000000000000000000023
:103140000000000010001000180000000000000047
:103150000000000000000000200010003C00000003
:10316000000000000000000000000000100010003F
:103170001800000000000000000000000000000037
:10318000200010003C0000000000000000000000D3
:1031900000000000100010001800000000000000F7
:1031A0000000000000000000200010007C00000073
:1031B00000000000000000000000000010001000EF
:1031C00018000000000000000000000000000000E7
:1031D000200030007C000000000000000000000023
:1031E00000000000100010001800000000000000A7
:1031F0000000000000000000200030007C00000003
:10320000000000000000000000000000100010009E
:103210001800000000000000000000000000000096
:10322000200030007C0000000000000000000000D2
:103230000000000010001000180000000000000056
:103240000000000000000000200030007C000000B2
:10325000000000000000000000000000000010005E
:103260001800000000000000000000000000000046
:10327000300030007C000000000000000000000072
:103280000000000000001000180000000000000016
:103290000000000000000000300020007C00000062
:1032A000000000000000000000000000000010000E
:1032B00018000000000000000000000000000000F6
:1032C000300020007C000000000000000000000032
:1032D00000000000000010001800000000000000C6
:1032E0000000000000000000300020007C0008000A
:1032F00000000000000000000000000000001000BE
:1033000018000000000000000000000000000000A5
:10331000300020007C0008000000000000000000D9
:103320000000000000001000180000000000000075
:1033300000000000000000003000200074000800C1
:10334000000000000000000000000000000010006D
:103350001800000000000000000000000000000055
:103360003000200074000800000000000000000091
:103370000000000000001000180000000000000025
:1033800000000000000000003000200030001800A5
:10339000000000000000000000000000000010001D
:1033A0001800000000000000000000000000000005
:1033B0003000200030001800000000000000000075
:1033C00000000000000010001800080000000000CD
:1033D0000000000000000000200020003000140069
:1033E00000000000000000000000000000001000CD
:1033F00018000800000000000000000000000000AD
:103400002000200030001400000000000000000038
:10341000000000000000100018000800000000007C
:103420000000000000000000200020003000140018
:10343000000000000000000000000000000010007C
:10344000180008000000000000000000000000005C
:1034500020002000300014000000000000000000E8
:10346000000000000000100018000800000000002C
:1034700000000000000000002000200030001400C8
:10348000000000000000000000000000000010002C
:10349000180008000000000000000000000000000C
:1034A0002000200030001400000000000000000098
:1034B00000000000000010001800080000000000DC
:1034C0000000000000000000200020003000140078
:1034D00000000000000000000000000000001000DC
:1034E00018000800000000000000000000000000BC
:1034F0002000200030001400000000000000000048
:10350000000000000000100018000800000000008B
:103510000000000000000000200020003000140027
:10352000000000000000000000000000000010008B
:10353000180008000000000000000000000000006B
:1035400020002000300014000000000000000000F7
:103550000000000000001000180000000000000043
:1035600000000000000000003000200034001C00BB
:10357000000000000000000000000000000010003B
:103580001800000000000000000000000000000023
:103590003000200034001C0000000000000000008B
:1035A00000000000000010001800000000000000F3
:1035B00000000000000000003000300034000C006B
:1035C00000000000000000000000000000001000EB
:1035D00018000000000000000000000000000000D3
:1035E000300010003400080000000000000000005F
:1035F00000000000000010001800000000000000A3
:103600000000000000000000300010003C00080036
:10361000000000000000000000000000000010009A
:103620001800000000000000000000000000000082
:10363000300010003C000800000000000000000006
:1036400000000000100010001C000000000000003E
:103650000000000000000000200010003800000002
:10366000000000000000000000000000100010003A
:103670001C0000000000000000000000000000002E
:1036800020001000380000000000000000000000D2
:1036900000000000100010001C00000000000000EE
:1036A00000000000000000000000100028000000E2
:1036B00000000000000000000000000010001000EA
:1036C0001C000000000000000000000000000000DE
:1036D00000001000280000000000000000000000B2
:1036E00000000000100010001C000000000000009E
:1036F000000000000000000000001800280000008A
:103700000000000000000000000000001000100099
:103710001C0000000000000000000000000000008D
:103720000000180028000000000000000000000059
:1037300000000000100010001C000000000000004D
:103740000000000000000000000008002800000049
:103750000000000000000000000000001000180041
:103760001C0000000000000000000000000000003D
:10377000080000002E000000000000000000000013
:1037800000000000180008000E000000000000000B
:103790000000000000000000000018003C000000D5
:1037A00000000000000000000000000018000800F9
:1037B0000E000000000000000000000000000000FB
:1037C000000008003E0000000000000000000000B3
:1037D0000000000008000C000F00000000000000C6
:1037E0000000000000000000180008003E00020079
:1037F00000000000000000000000000008000C00B5
:103800000F000000000000000000000000000000A9
:103810000C00000016000300000000000000000083
:10382000000000000C0004000F0001000000000078
:10383000000000000000000008000C001700060057
:103840000000000000000000000000000C00040068
:103850000F00010000000000000000000000000058
:1038600000000C001700060000000000000000002F
:10387000000000000C00040007000700000000002A
:10388000000000000000000004000C000F00090010
:103890000000000000000000000000000C00040018
:1038A000070007000000000000000000000000000A
:1038B00004000C000F0009000000000000000000E0
:1038C000000000000C0004000700070000000000DA
:1038D000000000000000000000000C000E000F00BF
:1038E0000000000000000000000000000C000400C8
:1038F00007000700000000000000000000000000BA
:1039000000000C000C001F00000000000000000080
:103910000000000000000C0006000700000000008E
:1039200000000000000000000C0004000D000F006B
:1039300001000000000000000000000000000C007A
:1039400006000F000000000200020002000000005C
:103950000C0000000C000700000000000000000048
:103960000000000000000C0004000E000000000138
:103970000003000300000000080000000E00060025
:103980000200000000030003000000000000080027
:103990000C000E0000000000800380030000000007
:1039A0000800040002000600060080030003000374
:1039B00000000000000008000C000C0000020003E2
:1039C000C003C0030000000008000400000006005F
:1039D0000400C00280038003000000000000080013
:1039E0000C000C0000000003C003C0030000000036
:1039F000080000000000060004024001C003C003EC
:103A000000000000000008000C000C000000000393
:103A1000C003C00300000000080000000000060012
:103A200004024001C003C0030000000000000800C1
:103A30000C000C0000000003C003C00300000000E5
:103A4000080000000000060004024001C003C0039B
:103A500000000000000008000C000C000000000343
:103A6000C003C003000000000800000000000400C4
:103A700000024001C003C003000000000000080075
:103A80000C000C0000000003C003C0030000000095
:103A9000080000000000040000024001C003C00351
:103AA00000000000000008000C000C0000000003F3
:103AB000C003C0030000000008000800000004006C
:103AC00000024001C003C003000000000000080025
:103AD0000C000C0000000003C003C0030000000045
:103AE000080008000000040000024001C003C003F9
:103AF00000000000000008000C000C0000000003A3
:103B0000C003C0030000000008000800000004001B
:103B100000034001C003C0030000000000000800D3
:103B20000C000C0000000003C003C00300000000F4
:103B3000080008000000040000034001C003C003A7
:103B400000000000000008000C000C000000000352
:103B5000C003C003000000000800000008000400CB
:103B600000034001C003C003000000000000080083
:103B70000C000C0000000003C003C00300000000A4
:103B8000080000000800040000034001C003C00357
:103B900000000000000008000C000C000000000302
:103BA000C003C00300000000080008000C0004006F
:103BB00000034001C003C003000000000000080033
:103BC0000C000C0000000003C003C0030000000054
:103BD000080008000C00040000034001C003C003FB
:103BE00000000000000008000C000C0000000003B2
:103BF000C003C00300000000080008000C00000023
:103C000000034001C003C0030000000000000800E2
:103C10000C000C0000000003C003C0030000000003
:103C2000080008000C00000000034001C003C003AE
:103C300000000000080008000C000C000000000359
:103C4000C003C00300000000000008000C000000DA
:103C500000034001C003C00300000000080008008A
:103C60000C000C0000000003C003C00300000000B3
:103C7000000008000C00000000034001C003C00366
:103C800000000000080008000C000C000000000309
:103C9000C003C00300000000000008000C0000008A
:103CA00000034001C003C00300000000080008003A
:103CB0000C000C0000000003C003C0030000000063
:103CC000000008000C0000000003C001C003C00396
:103CD00000000000080008000C000C0000000003B9
:103CE000C003C00300000000000008000C0000003A
:103CF0000003C001E003C00300000000080008004A
:103D00000C000C0000000003C003C0030000000012
:103D1000000008000C0000000003C001E003C00325
:103D200000000000080008000C000C000000000368
:103D3000C003C00300000000000008000C000000E9
:103D40000003E001E003E0030000000008000800B9
:103D50000C000C0000000003C003C00300000000C2
:103D6000000008000C0000000003E001E003E00395
:103D700000000000080008000C000C000000000318
:103D8000C003C003000000000000000008000000A5
:103D90000003E001E003E003000000000000080071
:103DA0000C000C0000000003C003C0030000000072
:103DB00008000800080000000003E001E003E00341
:103DC00000000000000008000C000C0000000003D0
:103DD000C003C00300000000080008000800000045
:103DE0000003E001E003E003000000000000080021
:103DF0000C000C0000000003C003C0030000000022
:103E000008000800080008000003E001E003E003E8
:103E100000000000000008000C000C00000000037F
:103E2000C003C003000000000800000008000800F4
:103E30000003E001E003E0030000000000000800D0
:103E40000C000C0000000003C003C00300000000D1
:103E500008000000080008000003E001E003E003A0
:103E6000000000000000080008000C000000000333
:103E7000C003C00300000000080000000C000C009C
:103E80000003E001E003E003000000000000080080
:103E900008000C0000000003C003C0030000000085
:103EA000080000000C000C000003E001E003E00348
:103EB000000000000000080008000C0000000003E3
:103EC000C003C00300000000080008000C000C0044
:103ED0000003E001E003E003000000000000080030
:103EE00008000C0000000003C003C0030000000035
:103EF000080008000C000C000003E001E003E003F0
:103F0000000000000000080008000C000000000392
:103F1000E003E00300000000080008000C000C00B3
:103F20000003E001C003C00300000000000008001F
:103F300008000C0000000003E003E00300000000A4
:103F4000000000000C0008000003E001C003C003F3
:103F5000000000000000080008000C000000000342
:103F6000E003E00300000000000000000C00080077
:103F70000003E001C003C0030000000000000800CF
:103F800008000C0000000003E003E0030000000054
:103F9000000000000C0008000003E001C003C003A3
:103FA000000000000000080008000C0000000003F2
:103FB000E003E00300000000000000000C00080027
:103FC0000003E001C003C00300000000000008007F
:103FD00008000C0000010003E003E0030000000003
:103FE000000000000C0008000002E001C003C00354
:103FF000000000000000080008000C0000010003A1
:10400000E003E00300000000000000000C000800D6
:104010000002E001C003C00300000000000008002F
:1040200008000C0000010003E003E00300000000B2
:10403000000000000C0008000002E001C003C00303
:10404000000000000000080008000C0000018003D0
:10405000E003E00300000000000000000C00080086
:1040600000022001C003C00300000000000008009F
:1040700008000C0000018003E003E00300000000E2
:10408000000000000C00080000022001C003C00373
:10409000000000000000080008000C000001800380
:1040A000E003E00300000000000000000C00080036
:1040B00000022001C003C00300000000000008004F
:1040C00008000C0000018003E003E0030000000092
:1040D000000000000C00080000022001C003C00323
:1040E000000000000000080008000C000001800330
:1040F000E003E00300000000080010000C000800CE
:1041000000022001E003E0030000000000000800BE
:1041100008000C0000018003E003E0030000000041
:10412000080010000C00080000022001E003E0037A
:10413000000000000000080008000C0000018003DF
:10414000E003E00300000000080010000C0008007D
:1041500000022001E003E00300000000000008006E
:1041600008000C0000018003E003E00300000000F1
:10417000080010000C00080000022001E003E0032A
:104180000000000000000800080008000001800393
:10419000E003E00300000000080000000C00040041
:1041A00000022001E003E00300000000000008001E
:1041B0000800080000018003E003E00300000000A5
:1041C000080000000C00040000022001E003E003EE
:1041D0000000000000000800080008000001800343
:1041E000E003E00300000000080000000C000400F1
:1041F00000022001E003E0030000000000000800CE
:104200000800080000018003E003E0030000000054
:10421000080000000C00040000022001E003E0039D
:1042200000000000000008000C000C0000018003EA
:10423000E003E003000000000800080008000000A0
:1042400000022001E003E00300000000000008007D
:104250000C000C0000010003E003E003000000007C
:1042600008000800080000000002A001E003E003CD
:1042700000000000080008000C000C000000000313
:10428000A003E0030000000000000C000E00060088
:10429000000300024003E0030000000008000800E3
:1042A0000C000C00000000030003E003000000000D
:1042B000000008000C000E0000000000A003E00356
:1042C00000000000080008000E000E0000000002C0
:1042D00000032003000008000C000C000C000C0080
:1042E000040000012002C0030000000008000800D4
:1042F0000E000E0004000000000200020000080092
:104300000C000C0004000E000A0000020002200352
:10431000000000000C000C0006000F00060000006A
:104320000000000200000C000C000C000F00060052
:104330000B00000000020002000000000C000C0056
:1043400007000F00070000000000000000000C0044
:104350000C000C000E0007000F000000000000021F
:10436000000004000C000C00070007000F00030011
:1043700000000000000008000600060007000F0013
:1043800007000400000000000000040006000E000A
:10439000070007000F0007000000000000000E00EB
:1043A0000C00040007000F000700030000000000DD
:1043B00000000600060006000700070007000700CF
:1043C0000100000004000C000F000C0007000300B7
:1043D0000F000F00070000000200060007000600A3
:1043E00007000300070007000700010004000700A2
:1043F0000E000E000300070007000F00010002007E
:104400000200070007000700030003000300070085
:10441000070007000700070003000E000E0003005E
:104420000700070007000300030007000300070060
:104430000B00030003000300070007000300070050
:1044400007000F0017000300010007000700070026
:1044500007000700030003000F0001000100010036
:10446000030007000300030001001F001100030008
:104470000100010005000300070007000100030020
:104480001F00010001000000010003000300010003
:1044900003001F000F0001000000010000000500E4
:1044A00007000000000013003F002F000000000084
:1044B0000000000003000000010021007F00040054
:1044C00020000000000000000700000000001300B2
:1044D0003F002F000000000000000000030000006B
:1044E000000021006F00000020000000000000001C
:1044F00003000000000013003F002D00000000003A
:104500000000000007000000010021005F00020021
:104510002000000000000000030000000000130065
:104520003F002D0000000000000000000700000018
:10453000010021005F0002002000000000000000D8
:1045400003000000000011003F002D0000000000EB
:104550000000000000000000010023006F000600C2
:104560002000000000000000030000000000110017
:104570003F002D00200000000000000000000000AF
:10458000010023006F000600000000000000000092
:1045900000000000000011003F002F00200000007C
:1045A0000000000003000000010021006B00040077
:1045B00000000000000000000000000000001100EA
:1045C0003F002F002000000000000000030000005A
:1045D000000021003B000600000000000000000079
:1045E00000000000000011003F0027000000000054
:1045F0000000000001000000000008001B002E0069
:104600003000000000000000000000000000110069
:104610003F00270000000000000000000100000033
:10462000000008001B002E00300000000000000009
:1046300000000000000010003F00270010000000F4
:1046400000000000000000000000090019001E002A
:10465000200010000000000000000000000010001A
:104660003F002700100000000000000000000000D4
:10467000000009001D001E002000100000000000C6
:1046800000000000000018003F002700100000009C
:104690000000000000000000000011002D001600C6
:1046A00000001000000000000000000000001800E2
:1046B0003F00270010000000000000000000000084
:1046C000000011002D001600000010000000000086
:1046D00000000000000038003F002700000000003C
:1046E000000000000000000000001500670012003C
:1046F0003000100000000000000000000000380042
:104700002F00070000000000000000000000000073
:1047100000001D00570022003000300000000000A3
:104720000000000000003C000F000300000020001B
:10473000000000000000000010007B006700070080
:1047400020001000300000000000000000003C00CD
:10475000070003000000200020000000000000000F
:1047600010007B004F000700000000001000000058
:10477000000000003C000F000700000000002000C7
:1047800020000000000000007B0077000300000014
:104790000000000000002000000038003F0007007B
:1047A00000000000000020002000000000007F004A
:1047B0004F00030000000000000000000000200087
:1047C0007F00070000000000000000000000400023
:1047D000000000003F006F00020000000000000029
:1047E0006000200020000000000000000000000029
:1047F0000000000000002000000000006B0000002E
:104800000000000000000000600040000000000008
:104810000000000000000000000000006000000038
:104820000000000000000000000000000000400048
:104830000000200000000000000000000000000058
:104840000000400020000000000000000000000008
:1048500000000000000020004000000000000000F8
:1048600000000000000000000000600000000000E8
:104870000000000000000000000000000000000038
:104880000000000000000000000000000000000028
:1048900000006000000000000000000000000000B8
:1048A00000000000200000000000000000000000E8
:1048B0000000000000000000400040000000000078
:1048C00000000000000000000000000020000000C8
:1048D00000000000000000000000000000000000D8
:1048E0004000400000000000000000000000000048
:1048F0000000400020000000000000000000000058
:1049000000000000000000000000000000000000A7
:1049100000000000000000000000600060002000B7
:104920000000000000000000000000000000400047
:104930002000000000000000000000000000000057
:104940000000200000000000000000000000000047
:1049500000000000000060002000000000000000D7
:104960000000000000000000000000000000000047
:104970000000000000000000000000000000200017
:104980000000000000000000000000000000000027
:104990000000600020000000000000000000000097
:1049A00000000000000020000000000000000000E7
:1049B0000000000000000000300050000000000077
:1049C00000000000000000000000000020002000A7
:1049D00000000000000000000000000200000000D5
:1049E0001000400000000000000000000002000372
:1049F0000000000220038003E003F003F803FE033D
:104A0000FF03FF03000010009002E003C003E8036F
:104A1000FC03FC03FE03FF03E003E003F803FC03D5
:104A2000FF03FF03FF03FF03FF03FF03C003D003E4
:104A3000C403DE03FE03FF03FF03FF03FF03FF03C3
:104A4000FF03FF03EF03FF03FF03FF03FF03FF0366
:104A5000FF03FF03FF03CF03DF03FF03FF03FF0396
:104A6000FF03FF03FF03FF03FF03EF03EF03FF0356
:104A7000FF03FF03FF03FF03FF03FF03FF03DF0346
:104A8000FF03FF03FF03FF03FF03FF03FF03FF0316
:104A9000FF03EF03FF03FF03FF03FF03FF03FF0316
:104AA000FF03FF03FF03C703EF03FF03FF03FF033E
:104AB000FF03FF03FF03FF03FF03E703FF03FF03FE
:104AC000FF03FF03FF03FF03FF03FF03FF03CF0306
:104AD000FF03FF03FF03FF03FF03FF03FF03FF03C6
:104AE000F703EF03FF03FF03FF03FF03FF03FF03CE
:104AF000FF03FF03E703E703FF03FF03FF03FF03D6
:104B0000FF03FF03FF03FF03F703EF03FF03FF03AD
:104B1000FF03FF03FF03FF03FF03FF03E703EF03AD
:104B2000FF03FF03FF03FF03FF03FF03FF03FF0375
:104B3000F703EF03FF03FF03FF03FF03FF03FF037D
:104B4000FF03FF03EF03F703FF03FF03FF03FF036D
:104B5000FF03FF03FF03FF03F703F703FF03FF0355
:104B6000FF03FF03FF03FF03FF03FF03FF03EF0345
:104B7000FF03FF03FF03FF03FF03FF03FF03FF0325
:104B8000482F4170342F330F330F330F482F4270AB
:104B9000242F220F432F422B9C012470332736955C
:104BA0002795242B83FB332730F9232B25B9482F56
:104BB0004071440F440F440F282F2072220F422BC4
:104BC000BC016074772776956795242F262BAC015E
:104BD000407855275695479556954795569547954C
:104BE000422B9C01222731703695279532952295CC
:104BF0002F7023273F702327242B88279270880F3C
:0E4C0000892F881F990B9195822B8BB90895EF
:104C0E008CEF8AB98FE384B90F2EF2E92F2EF0E0E4
:104C1E003F2EF0E04F2EF02D26C00E945226E42C9F
:104C2E006101F6015E2D0E946C26CB010E94C0250B
:104C3E0085E38A95F1F700000E94432682E0C81AA8
:104C4E00D108E108C614D704E80459F7219729F7CB
:104C5E0088E2280E311C411C82E928168BE43806A6
:104C6E0080E0480689F2CFE1D0E0842C310184E166
:084C7E00681A71088108D1CF0A
:104C86008CEF8BB98FE185B985E08A95F1F7000045
:0E4C96008FE085B985E08A95F1F7000008955A
:104CA4008CEF8BB98FE285B985E08A95F1F7000026
:0E4CB4008FE085B985E08A95F1F7000008953C
:104CC200EC010E9479260E947826CE010E947A2663
:064CD200CE010E947626CF
:104CD80057FD03C06591759108956191719108958B
:044CE8000C94000028
:044CEC000E943E00E4
:024CF000089525
:024CF200089523
:024CF400089521
:00000001FF
